:020000041000EA
:1000000000B5324B212058609868022188439860DF
:10001000D860186158612E4B002199600221596106
:100020000121F02299502B49196001219960352056
:1000300000F044F80222904214D00621196600F024
:1000400034F8196E01211966002018661A6600F04E
:100050002CF8196E196E196E052000F02FF8012189
:100060000842F9D1002199601B49196000215960AB
:100070001A491B48016001219960EB211966A021F2
:10008000196600F012F800219960164914480160C1
:100090000121996001BC002800D000471248134993
:1000A000086003C880F30888084703B5996A0420EC
:1000B0000142FBD001200142F8D103BD02B5186610
:1000C0001866FFF7F2FF186E186E02BD00000240BE
:1000D000000000180000070000035F00212200005C
:1000E000F4000018222000A00001001008ED00E03C
:1000F00000000000000000000000000074B24E7A12
:1001000000200420F7010010C3010010C5010010F9
:10011000C1010010C1010010C1010010C101001097
:10012000C1010010C1010010C1010010C701001081
:10013000C1010010C1010010C9010010CB01001065
:10014000CD010010CD010010CD010010CD01001037
:10015000CD010010CD010010CD010010CD01001027
:10016000CD010010CD010010CD010010CD01001017
:10017000CD010010CD010010CD010010CD01001007
:10018000CD010010CD010010CD010010CD010010F7
:10019000CD010010CD010010CD010010CD010010E7
:1001A000CD010010CD010010CD010010CD010010D7
:1001B000CD010010CD010010CD010010CD010010C7
:1001C00000BE00BE00BE00BE00BE00BE00F04BF888
:1001D000103800BEF2EB887190C20010B0C200105F
:1001E0003402001090A31AE700202149086006C8D5
:1001F00081F3088810471F48006800282FD10DA4FC
:100200000ECC002902D000F012F8F9E71A491B4A77
:10021000002000E001C19142FCD1194988471949E9
:1002200088471949884700BEFDE701C901C29A42C3
:10023000FBD37047B0C20010C00000200085002032
:10024000F04601100000042000000420F0460110D8
:1002500000100420001004200000000070470B482C
:1002600005F0FEFD0047EFF30580C0B270470000C7
:1002700008ED00E0000000D000850020149301206C
:10028000D1470010C52A00108D47001057560000B6
:1002900006005250ABB3605344BA001006005250EF
:1002A000861C030254BA0010060052505422A29D2C
:1002B0005CBA001005005250DE65F468F04601108B
:1002C000F8B5C0460448054B10B5834203D0044B33
:1002D000002B00D0984710BD00850020008500202D
:1002E0000000000006480749091A8910CB0F591869
:1002F00010B5491003D0044B002B00D0984710BD17
:1003000000850020008500200000000010B5074C8B
:100310002378002B09D1FFF7D5FF054B002B02D026
:10032000044800E000BF0123237010BD18860020A0
:1003300000000000989D0010054B10B5002B03D065
:100340000449054800E000BFFFF7CCFF10BDC046E0
:10035000000000001C860020989D00107047704728
:10036000034A1388591C1180024A13807047C04603
:100370000C900120E88F00200D4B1B78DB0710D478
:100380000C490B880C4A13800C4A12889A1892B2B6
:100390000A805340FF22934304D0094A1368023372
:1003A00013607047064A136801331360F9E7C046CB
:1003B000098400200C900120FC8F0120EC8F00208C
:1003C000E08A00200D4B1B78DB0710D50C490B8809
:1003D0000C4A13800C4A12889A1892B20A80534031
:1003E000FF22934304D0094A136802331360704715
:1003F000064A136801331360F9E7C04609840020F8
:100400000C900120FC8F0120EC8F0020E08A00205E
:100410000D4B1B789B0710D50C490B880C4A138099
:100420000C4A12889A1892B20A805340FF229343D2
:1004300004D0094A1368023313607047064A1368F0
:1004400001331360F9E7C046098400200C900120B5
:10045000FC8F0120EC8F0020E08A00200E4B1B78DF
:100460005BB2002B00DB70470C490B880C4A1380F1
:100470000C4A12889A1892B20A805340FF22934382
:1004800004D0094A136802331360ECE7064A136884
:1004900001331360E7E7C046098400200C90012077
:1004A000FC8F0120EC8F0020E08A00200D4B1B7890
:1004B0009B0710D40C490B880C4A13800C4A1288F5
:1004C0009A1892B20A805340FF22934304D0094AFB
:1004D0001368023313607047064A136801331360D0
:1004E000F9E7C046098400200C900120FC8F012010
:1004F000EC8F0020E08A00200D4B1B785BB2002BB4
:1005000010DB0C490B880C4A13800C4A12889A188D
:1005100092B20A805340FF22934304D0084A1368E2
:10052000023313607047064A136801331360F9E71A
:10053000098400200C900120FC8F0120EC8F00200A
:10054000E08A00200D4B1B785B0610D40C490B8809
:100550000C4A13800C4A12889A1892B20A805340AF
:10056000FF22934304D0094A136802331360704793
:10057000064A136801331360F9E7C0460984002076
:100580000C900120FC8F0120EC8F0020E08A0020DD
:100590000D4B1B785B0610D50C490B880C4A138059
:1005A0000C4A12889A1892B20A805340FF22934351
:1005B00004D0094A1368023313607047064A13686F
:1005C00001331360F9E7C046098400200C90012034
:1005D000FC8F0120EC8F0020E08A0020024A137873
:1005E00001218B431370704709840020024A13785D
:1005F00008218B431370704709840020024A137846
:1006000004218B431370704709840020024A137839
:1006100040218B431370704709840020104A1378DF
:10062000013BDBB21370002B0DD00E490A7802207B
:1006300082430A705BB2002B0BDB0A4A11787F23DE
:100640000B401370704707490A78022002430A7072
:10065000F0E7044A117880235B420B431370F1E703
:10066000EA8F002009840020104A1378013BDBB296
:100670001370002B0DD00E490A78022082430A70B5
:100680005BB2002B0BDB0A4A11787F230B401370FF
:10069000704707490A78022002430A70F0E7044ACB
:1006A000117880235B420B431370F1E70490012023
:1006B00009840020104A13780133DBB21370002B39
:1006C0000DD00E490A78022082430A705BB2002BDB
:1006D0000BDB0A4A11787F230B40137070470749E0
:1006E0000A78022002430A70F0E7044A1178802356
:1006F0005B420B431370F1E7EA8F0020098400206E
:10070000104A13780133DBB21370002B0DD00E4961
:100710000A78022082430A705BB2002B0BDB0A4A84
:1007200011787F230B401370704707490A78022025
:1007300002430A70F0E7044A117880235B420B43BE
:100740001370F1E70490012009840020024B1A88FD
:10075000024B1A807047C046E88F00200C900120A1
:10076000094B1B785C2B0BD006D9DC2B08D0FC2B5B
:1007700006D07C2B04D070471C2B01D03C2BFAD127
:10078000024B01221A70F6E70A900120F48F002034
:10079000024A137801210B4313707047098400202B
:1007A000024A137808210B43137070470984002014
:1007B000024A137804210B43137070470984002008
:1007C000104B1B78104A1370002B0DD00F490A787C
:1007D000022082430A705BB2002B0BDB0B4A1178BC
:1007E0007F230B401370704708490A7802200243A8
:1007F0000A70F0E7054A117880235B420B431370BF
:10080000F1E7C0460E900120EA8F00200984002005
:10081000104B1B78104A1370002B0DD00F490A782B
:10082000022082430A705BB2002B0BDB0B4A11786B
:100830007F230B401370704708490A780220024357
:100840000A70F0E7054A117880235B420B4313706E
:10085000F1E7C0460E900120049001200984002099
:10086000104B1B78104A1370002B0DD00F490A78DB
:10087000022082430A705BB2002B0BDB0B4A11781B
:100880007F230B401370704708490A780220024307
:100890000A70F0E7054A117880235B420B4313701E
:1008A000F1E7C04609900120EA8F0020098400206A
:1008B000104B1B78104A1370002B0DD00F490A788B
:1008C000022082430A705BB2002B0BDB0B4A1178CB
:1008D0007F230B401370704708490A7802200243B7
:1008E0000A70F0E7054A117880235B420B431370CE
:1008F000F1E7C046EA8F00200E9001200984002015
:10090000024B1A78024B1A707047C046EA8F0020DB
:1009100009900120104B1B78104A1370002B0DD04A
:100920000F490A78022082430A705BB2002B0BDB6E
:100930000B4A11787F230B401370704708490A78DF
:10094000022002430A70F0E7054A117880235B42D7
:100950000B431370F1E7C046049001200E90012074
:10096000098400200B490B880B4A13800B4A12881C
:100970009A1892B20A805340FF22934304D0084A47
:100980001368023313607047054A1368013313601C
:10099000F9E7C0460C900120FC8F0120EC8F00206D
:1009A000E08A0020FF230370002343708370C3702C
:1009B0000371012242718371C371027243727047E5
:1009C000002905D101235B4203800023438003718A
:1009D00000234371C380704700230370437043803A
:1009E0007047000010B5428BD30702D5C38A013B84
:1009F000C382C38A15498C46634459424B41DBB2DA
:100A00004376002B10D02823C35C5B0612D5037EEF
:100A100001214B4003762521435C4024234343546A
:100A200080239B001A434283438BDB0501D5838AD5
:100A3000C38210BD037E002BF2D12521435C4024EC
:100A40002343435401230376EAE7C0460100FFFF36
:100A50002822825C92061FD5426B5A409A4353006B
:100A600002D5C38B013BC383C38B0F4A94466344B7
:100A70005A425341DBB221228354002B0BD0202356
:100A8000C35C002B07D10432835C20210B438354C9
:100A90002023243AC2547047438CDB07E4D5C38B30
:100AA000013BC383E0E7C0460100FFFF10B504210E
:100AB000428B0A434283438C0B4343842521415C90
:100AC0002424045D0C4203D0C18C02242143C18440
:100AD000520805490A4042835B080B404384C38C9B
:100AE0005B080B40C38410BD7F7F00008379002B1F
:100AF0000AD02522835C02210B4383542923C25C44
:100B00001D3B1340082B26D0437A002B08D0292305
:100B1000C35C1B0704D42522835C01210B4383544F
:100B2000037C002B0AD02522835C10210B438354C5
:100B30002923C35C1A329343802B0FD0C37C002B34
:100B400008D02923C356002B04DB2522835C08210F
:100B50000B4383547047073B0372D5E77F3B837495
:100B6000ECE7000030B5C18CC90705D52524055D2B
:100B7000802149422943015525214156002903DBA3
:100B800004481040190030BD8020C00410431900F3
:100B9000F9E7C046FFFFFFFBF0B5DE4657464E467D
:100BA0004546E0B583B0040000921D008023DB00C1
:100BB0002B401A00511E8A41D2B29446802109016D
:100BC00029400A00501E8241D2B292468022520130
:100BD0002A4091461000421E9041C0B28026B601C4
:100BE0002E40B0463200571EBA41D2B22779BC45DA
:100BF0000DD0002B03D02927E75DFE0725D4002B5D
:100C000025D12927E75DFE0723D5002700E000272F
:100C10000197A771E779BA451DD0002909D0292786
:100C2000E75DBB460C27BA465F4656463740042F61
:100C300027D0002928D12926A65DB2460C26574682
:100C40003E4224D00026B24607E00127E0E7002715
:100C5000DEE70127DCE70027BA4657466772A77B25
:100C6000B84217D04F46002F03D02926A65DF606BE
:100C700027D4002B27D12933E35CDB0625D50023BD
:100C800009E00126B246E8E70026B246E5E701267C
:100C9000B246E2E700232374677CBA4217D0464687
:100CA000002E05D02926A65D3F27BE43402E21D029
:100CB000002921D12931615C3F26B1431ED000219A
:100CC00006E00123E7E70023E5E70123E3E700214E
:100CD00001263140E17461462171E271A0736274B2
:100CE0002822A25C16420BD0019900290AD0290CB7
:100CF000217007E00121EBE70021E9E70121E7E7A7
:100D0000290C2170920704D5002B04D02B0EA3725E
:100D100001E02B0EA3722000FFF7E8FE2000FFF792
:100D200061FE009E32002B002000FFF791FE320092
:100D30002B002000FFF716FF00256557A27895438A
:100D40006DB2637813401D43EAB2E2700A23E356A2
:100D5000267BB3435BB2E57A35402B43DBB22825D3
:100D60006557002D2DDB63730D042D0C1204154304
:100D70001B061D43060018490D406379002B02D065
:100D80008023DB001D43237A002B02D080231B012C
:100D90001D43E37B002B02D080235B011D43A37C1A
:100DA000002B02D080239B011D432000FFF77EFE15
:100DB0003000290003B03CBC90469946A246AB46A1
:100DC000F0BD7F252B40257E002DCCD080256D42A7
:100DD0002B43DBB2C7E7C046FFC3FFFF30B50300BC
:100DE0000F2900D99FE08900504A5258974628227F
:100DF000825C920719D5807A29229A5C5F218A4306
:100E0000202A14D0182425215A5CA2435A540139AF
:100E1000595C1140490638D17F210A405A395A5449
:100E2000DA8CDA318A43DA842FE0407BE4E710245D
:100E3000E9E72822825CD20724D5007829229C5C2D
:100E40001F3A2240022A00D003222525595D9143F2
:100E50000A0059552421595C1140490607D17F21C8
:100E60000A405A395A54DA8CDA318A43DA840E222B
:100E700022400A2A03D00C221440082C05D100225B
:100E80001A7202E0C078D9E7007B30BD8078FCE7B9
:100E9000807D25215A5C4024A2435A540139595C73
:100EA00011404906F1D17F210A405A395A54DA8C4F
:100EB000DA318A43DA84E8E7C08A000AE5E7007D90
:100EC000E3E7808A000AE0E7807F25215A5C20243E
:100ED000A2435A540139595C11404906D5D17F21AA
:100EE0000A405A395A54DA8CDA318A43DA84CCE728
:100EF000C08B000AC9E72822805CC6E72922805CF3
:100F0000C3E72522805CC0E72422835C8020404226
:100F10001843C0B2B9E72822825CD20701D5007815
:100F2000B3E7C078B1E70020AFE7C046989D001056
:100F300010B50F294CD889007E4B5B589F46C27272
:100F40002923C25C363311009943202918D0182474
:100F50002521435CA34343540139415C19404906B0
:100F600007D17F210B405A394354C38CDA318B436C
:100F7000C3843F239A43802A2AD10023837427E025
:100F80001024E5E742702923C15C1F3B0B40022B74
:100F900000D003232524025D9A4313000255242226
:100FA000825C1A40520607D17F2213405A3A83547A
:100FB000C38CDA329343C3840E230B400A2B03D035
:100FC0000C231940082903D10023037200E00273A7
:100FD00010BD8270FCE71421435EFF218B431A434E
:100FE0008282F5E713021422815EFF220A401A432F
:100FF00082822521435C4024A34343540139415C50
:101000001940490607D17F210B405A394354C38CFC
:10101000DA318B43C38400230376C282D8E71302FC
:101020001422815EFF220A401A4382822522835CB9
:1010300040218B438354013A825C1A405206C7D147
:101040007F2213405A3A8354C38CDA329343C384C9
:10105000BEE71C21435EFF218B431A438283B7E71F
:1010600013021C22815EFF220A401A43828325213B
:10107000435C2024A34343540139415C1940490691
:1010800007D17F210B405A394354C38CDA318B434B
:10109000C38420230021C154C28399E72823C2546A
:1010A000930600D594E7438C0122934343848FE752
:1010B0002923C25411001D3B13400C2B09D03F23A0
:1010C0009A43C02A00D083E749113E3B19408174FE
:1010D0007EE754100B3B23400372F0E753B2002B22
:1010E00012DB2521435C934343542422825C1A4043
:1010F000520600D06CE77F2213405A3A8354C38CC7
:10110000DA329343C38463E77F22EAE751B20029CE
:1011100006DB7F231A402421435C9343435457E763
:101120007F230B402422815C0B43835450E74270A1
:101130004EE7C046D89D0010002805D0044B18602B
:10114000044B01221A707047024B00221A70FAE712
:10115000F88F0120D98F002010B5041E21D038222D
:10116000002105F0CFFD2000FFF71CFC20000A3015
:10117000FFF718FC200014300021FFF721FC2000AD
:101180001C300021FFF71CFC20002430FFF724FC5A
:1011900000232822A3540132A354013BA382A3833A
:1011A00010BD8021024B034AFF31034803F0F2FADD
:1011B0004CBD0010309E001048A2001010B5041E57
:1011C0001DD0FFF7EFFB20000A30FFF7EBFB2000FC
:1011D00014300121FFF7F4FB20001C300121FFF740
:1011E000EFFB20002430FFF7F7FB00232822A35455
:1011F0000132A354002200232263636310BDCA217D
:10120000024B034A4900034803F0C4FA4CBD0010E6
:101210003C9E001048A2001070B5060015001C008E
:10122000C0239B00234080225200934207D02A0013
:1012300023003000FFF7B0FC3063716370BD0F21F5
:101240002940EB0108D5FFF7C9FD064B1D400004FE
:10125000C31705431C43EAE72A0CD2B2FFF768FE26
:10126000E5E7C046FFFF00FFF8B5344B984209D0D0
:10127000E023DB010F22040094439C4206D0304B54
:101280001954F8BD080005F06BFEFAE72D4D2E4A03
:101290002B681A402D4B6C6823400F2404402243D6
:1012A0002B480240080402438020400003432A6088
:1012B0006B60022C1DD0002C0ED1264D26482E68C6
:1012C0003040CE0330432860244D2E68D0252D06B3
:1012D0002F6978403040E861032C15D0012C1ED0D6
:1012E0001F48FFF799FF174B1860596000F096F8F8
:1012F000C7E71A4D18482E683040CE0330432860A7
:10130000D0252D062862D6E7144DFF202E6886438F
:10131000300008432860D0252D062862DEE70D4CFA
:10132000FF2025688543294321600C480468D020AC
:101330000006056969402140C161D1E701E0000074
:10134000F88F002010860020F0FFFFFEFFFDFFFF5A
:10135000FFFF00FF00900120FF7F80FFF08F002043
:101360001090012070B50400010A094D2878013061
:10137000FF30FFF779FF28780138FF231840E1B2EA
:101380000130FF30FFF770FF2B78023B2B7070BDF0
:101390000990012010B5054C2088013880B2FFF774
:1013A000E1FF034B1B88238010BDC0460C90012039
:1013B000E88F002010B50100044A1378581E107001
:1013C000581CFF30FFF750FF10BDC04609900120A8
:1013D00070B50E4B1B785B0700D570BD0C4D28888F
:1013E000FFF7C0FF094C2078FFF7E4FF23780422C1
:1013F00013432370074800F01DF804B2064800F0BC
:1014000019F8000204432C80E7E7C0460984002055
:101410000C900120FEFF0000FFFF000010B5044B00
:101420001B685B0100D410BDFFF7D2FFFBE7C0468D
:101430001086002010B58B4B98420AD0E023DB01C8
:101440000F220100914399420CD0874B1C5C200075
:1014500010BD642005F0FAFD03B2013300D1FFE0B6
:10146000C4B2F4E7814B00221A70814B984254D0E9
:10147000E023DB0198427CD07E4B98427DD07E4BAE
:1014800098427FD07D4B984200D180E07C4B9842BF
:1014900000D181E07B4B984200D183E07A4B9842A7
:1014A00000D184E0794B984200D186E0784B984295
:1014B00000D187E0774B984200D189E0764B984283
:1014C00000D189E0754B984200D18BE0744B984273
:1014D00000D18DE0734B984200D18FE0724B98425F
:1014E00000D191E0714C0F2322689A4370496368E0
:1014F00019400F2318400243802040040243F13377
:101500000B43226063606B48FFF786FE20606160DA
:10151000564B1C78FFF782FF99E7D02212065368DA
:10152000DB0901210B40DB015468A4090C40A40134
:1015300023435BB2546864090C406401234354683C
:1015400024090C40240123435468E4080C40E400BF
:1015500023435468A4080C40A4002343546864083F
:101560000C4064002343526811400B433F4A137000
:101570007EE700223D4B1A707EE74E4B1A7B3B4BB9
:101580001A707CE74B4B9A78384B1A707AE7494BC4
:10159000DA8A364B1A7079E7464BDB8A1B0A334AE4
:1015A000137077E7434B9A8A304B1A7076E7414BBA
:1015B0009B8A1B0A2D4A137074E73E4B9A7F2B4B74
:1015C0001A7073E73B4BDB8B1B0A284A137071E7D9
:1015D000264B00221A7071E7364A2823D25C234B2F
:1015E0001A706FE7334A2923D25C204B1A706DE7DB
:1015F000304A2523D25C1D4B1A706BE72D4A2423F9
:10160000D25C1A4B1A7069E7D02212065368DB09C4
:1016100001210B40DB015468A4090C40A4012343C1
:101620005BB2546864090C40640123435468240984
:101630000C40240123435468E4080C40E400234395
:101640005468A4080C40A4002343546864080C4068
:1016500064002343526811400B43044A137041E76E
:101660000024F4E604E00000F88F0020E08F002062
:1016700001700000027000000370000004700000A0
:101680000570000006700000077000000870000080
:10169000097000000A7000000B7000000C70000060
:1016A0000D7000000E7000000F700000108600200A
:1016B000FFFDFFFF1090012070B50C4E3078013017
:1016C000FF2528400130FF30FFF7B4FE04B2307828
:1016D000023028400130FF30FFF7ACFE000220430B
:1016E00080B233780233337070BDC0460990012058
:1016F00010B5FFF7E1FF034B18800130024B188053
:1017000010BDC046509001200C90012010B5054B33
:1017100018780130C0B218700130FF30FFF78AFE30
:1017200010BDC0460990012010B5FFF7EFFF0F4B29
:10173000187000280CD00E4A137802218B431370C6
:1017400003060BD40A4A11787F230B40137010BD97
:10175000074A137802210B431370F1E7044A11780A
:1017600080235B420B431370F1E7C046EA8F0020F1
:101770000984002010B5FFF7C9FF0F4B187000282F
:101780000CD00E4A137802218B43137003060BD43E
:101790000A4A11787F230B40137010BD074A137853
:1017A00002210B431370F1E7044A117880235B4256
:1017B0000B431370F1E7C046049001200984002018
:1017C00010B5FFF7A3FF0F4B187000280CD00E4A7E
:1017D000137802218B43137003060BD40A4A117845
:1017E0007F230B40137010BD074A137802210B436F
:1017F0001370F1E7044A117880235B420B431370A6
:10180000F1E7C0460E9001200984002010B5FFF7D3
:101810007DFF044B1870FFF74FFF034B1880034BFD
:10182000188010BD09840020509001200C900120E8
:1018300010B5FFF76BFF20231843014B187010BD44
:101840000984002010B50D48FFF7F4FD04B20C48E0
:10185000FFF7F0FD000204430A4B1C8000230A4AF4
:1018600013700A4A13700A4A13700A4BFD221A7049
:10187000094A137820210B43137010BDFCFF0000B0
:10188000FDFF00000C9001200E900120EA8F002047
:1018900004900120099001200984002070B5050002
:1018A000144C2088431C2380FFF7C4FD80B2FFF74F
:1018B000C1FD80B2104B1880238801339BB2238076
:1018C0000E4A13802841C20704D50D4A12889A187F
:1018D00008490A80074A12885340FF22934304D0E4
:1018E000084A13680233136070BD064A1368013357
:1018F0001360F9E70C90012050900120FC8F01202B
:10190000EC8F0020E08A002010B50720FFF7C6FF0B
:1019100010BD10B50620FFF7C1FF10BD10B50520A2
:10192000FFF7BCFF10BD10B50420FFF7B7FF10BDD7
:1019300010B50320FFF7B2FF10BD10B50220FFF76E
:10194000ADFF10BD10B50120FFF7A8FF10BD10B509
:101950000020FFF7A3FF10BD10B5084B1B789B00BC
:10196000074A9A58074B9A4205D0074B1888FFF749
:1019700061FD80B210BD054B1878FBE70A9001208D
:10198000489E00105F030010E88F00200E90012099
:10199000F8B54F4B01221A704E4B1B781B075AD5D6
:1019A000FFF7DAFF4C4B18804A4B1C780123634049
:1019B00001251D40A9B2494B1E780F273740BAB206
:1019C0000F2303405D19AF4231DBCB18D31A99B214
:1019D00000223509ABB2000980B28618B5422DDB72
:1019E000B0B21B1A9BB201221B010B433C490B8076
:1019F000002A2BD001231C43364B1C70394A136834
:101A000001331360364B1B88344A1370FF221A428D
:101A100052D030490A78022082430A701B0651D501
:101A20002C4A117880235B420B431370F8BDCB180E
:101A3000D31A9BB20A3399B20122CAE7101880B2B6
:101A40001B1A9BB20A339BB20022CDE701239C43B1
:101A5000204B1C70D2E7FFF77FFFFF23584080B276
:101A60001D4B18801D4B1A7883189BB219490978B1
:101A700001240C401B199BB2194C2380FF241D002C
:101A8000A5430ED001242143124C21705A405840E6
:101A9000104003060AD50F4A137840210B431370F8
:101AA000B0E70124A1430B4C2170EFE7094A1378FA
:101AB00040218B431370A5E706490A7802200243B0
:101AC0000A70ABE7034A11787F230B401370ADE730
:101AD000F48F002009840020509001200E900120F6
:101AE00006900120E08A002010B5FFF735FF194B62
:101AF0001880194B1B78191A184A1180C0B28342FA
:101B000016D317490A78012422430A70834215D05C
:101B1000134A137802218B431370104B1B881B064A
:101B200012D50F4A117880235B420B43137010BD0E
:101B30000B490A780124A2430A70E7E7084A1378A0
:101B400002210B431370E8E7054A11787F230B400D
:101B50001370ECE750900120EA8F002006900120DE
:101B60000984002010B51C4B01221A70FFF7F4FE07
:101B70001A4B18801A4B1B78191A1A4A1180C0B2D6
:101B8000834216D318490A78012422430A708342FB
:101B900015D0154A137802218B431370114B1B8803
:101BA0001B0612D5104A117880235B420B43137039
:101BB00010BD0D490A780124A2430A70E7E70A4ADA
:101BC000137802210B431370E8E7074A11787F234B
:101BD0000B401370ECE7C046F48F002050900120BA
:101BE0000E900120069001200984002010B5FFF717
:101BF000B3FE194B1880194B1B78191A184A11801B
:101C0000C0B2834216D317490A78012422430A70CE
:101C1000834215D0134A137802218B431370104B63
:101C20001B881B0612D50F4A117880235B420B4399
:101C3000137010BD0B490A780124A2430A70E7E72C
:101C4000084A137802210B431370E8E7054A11781C
:101C50007F230B401370ECE750900120049001208B
:101C6000069001200984002010B5134B01221A7040
:101C7000FFF772FE114B1880C0B2114B187000288C
:101C80000DD0104A137802218B43137040B2002804
:101C90000BDB0C4A11787F230B40137010BD094AEF
:101CA000137802210B431370F0E7064A1178802362
:101CB0005B420B431370F1E7F48F0020509001203A
:101CC000EA8F00200984002010B5134B01221A70FE
:101CD000FFF742FE114B1880C0B2114B187000285C
:101CE0000DD0104A137802218B43137040B20028A4
:101CF0000BDB0C4A11787F230B40137010BD094A8F
:101D0000137802210B431370F0E7064A1178802301
:101D10005B420B431370F1E7F48F002050900120D9
:101D20000E9001200984002010B5134B01221A7077
:101D3000FFF712FE114B1880C0B2114B187000282B
:101D40000DD0104A137802218B43137040B2002843
:101D50000BDB0C4A11787F230B40137010BD094A2E
:101D6000137802210B431370F0E7064A11788023A1
:101D70005B420B431370F1E7F48F00205090012079
:101D8000049001200984002010B5564B01221A70DE
:101D9000FFF7E2FD544B1880544B19780B0751D5CF
:101DA000534B1B780F221A400F24044012190124B0
:101DB0000C401219092A04D906320F2414401022AB
:101DC00022430F24A343E1342040181810189F2801
:101DD00028D901231943454B19704B0606D580239A
:101DE000FF33984202D9414B00221A70603080B212
:101DF000FF2303403F4A13803D4A107016D03B49F1
:101E00000A78022082430A7080221A4214D0374A8C
:101E1000117880235B420B431370374A13680133F8
:101E2000136010BD314B00221A70E1E72F490A7888
:101E3000022002430A70E7E72C4A11787F230B4007
:101E40001370EAE72A4B1B78C3189BB201200840A5
:101E50001B189BB2274A1380FF22180090432AD0F8
:101E600001221143214A1170FF221A4228D01F4A31
:101E7000137802218B4313701E4B1B881B0625D53C
:101E80001A4A117880235B420B431370194B1B884D
:101E9000174A12785A40144909884B4013401B06D0
:101EA0001AD5124A137840210B431370114B1A783C
:101EB0000F4B1A70B5E7012291430C4A1170D3E71A
:101EC0000A4A137802210B431370D5E7074A1178A9
:101ED0007F230B401370D9E7044A137840218B43CA
:101EE0001370E3E7F48F0020509001200984002054
:101EF0000E90012006900120E08A002010B5164BBC
:101F000001221A70FFF728FD144B1880144B1B7820
:101F10005840144B1880FF23034211D0124A137803
:101F200002218B431370030610D50F4A11788023CA
:101F30005B420B4313700B4B1A78094B1A7010BDA0
:101F4000094A137802210B431370ECE7064A117813
:101F50007F230B401370EEE7F48F00205090012098
:101F60000E900120069001200984002010B5FFF793
:101F7000F3FC124B1880124B1B780340114A13805C
:101F800016D0114A137802218B4313700F4B1B7824
:101F90009B000F4A9A580F4B9A4208D00A4A117870
:101FA0003F230B4040B23F2188431843107010BDBF
:101FB000054A137802210B431370E7E75090012084
:101FC0000E90012006900120098400200A90012033
:101FD000489E00106103001010B5164B01221A70C4
:101FE000FFF7BAFC144B1880144B1B781840144BA5
:101FF000188012D0134A137802218B431370802368
:10200000034210D00F4A1178013BFF3B0B43137082
:102010000B4B1A78094B1A7010BD0A4A137802212B
:102020000B431370EBE7074A11787F230B401370C3
:10203000EEE7C046F48F0020509001200E90012062
:10204000069001200984002010B5164B01221A7059
:10205000FFF782FC144B1880144B1B781843144B69
:102060001880FF23034211D0124A137802218B43B8
:102070001370030610D50F4A117880235B420B437F
:1020800013700B4B1A78094B1A7010BD094A13785C
:1020900002210B431370ECE7064A11787F230B40B3
:1020A0001370EEE7F48F0020509001200E90012075
:1020B000069001200984002070B50500144C20888A
:1020C000431C2380FFF7B6F980B2FFF7B3F980B263
:1020D000104B1880238801339BB223800E4A138053
:1020E0002841C20704D40D4A12889A1808490A8068
:1020F000074A12885340FF22934304D0084A1368CA
:102100000233136070BD064A136801331360F9E7A8
:102110000C90012050900120FC8F0120EC8F0020BA
:10212000E08A002010B50720FFF7C6FF10BD10B5EC
:102130000620FFF7C1FF10BD10B50520FFF7BCFF5B
:1021400010BD10B50420FFF7B7FF10BD10B5032078
:10215000FFF7B2FF10BD10B50220FFF7ADFF10BDB5
:1021600010B50120FFF7A8FF10BD10B50020FFF744
:10217000A3FF10BD10B5064B1888421C1A80FFF74C
:1021800059F9044B1B78C018C0B2034B188010BD1E
:102190000C90012004900120E88F0020F8B5124D2A
:1021A0002888FFF747F986B22888013080B2FFF708
:1021B00041F980B2000284B234430C4F38782018C1
:1021C00080B2FFF737F906B23878201880B20130B4
:1021D00080B2FFF72FF900020643054B1E802B88C3
:1021E00002332B80F8BDC0460C900120EA8F0020FE
:1021F000E88F002070B50F4D2888FFF71BF984B2D7
:102200002888013080B2FFF715F980B2000280B251
:1022100004432000FFF70EF906B20134A0B2FFF725
:1022200009F900020643044B1E802B8802332B80E1
:1022300070BDC0460C900120E88F002070B5104D95
:102240002888FFF7F7F804B22888013080B2FFF73A
:10225000F1F8030223439BB2FF221900914309487E
:1022600000781B189BB2084803809343994202D020
:10227000064BFE3A1A70024A13880233138070BD6F
:102280000C900120EA8F0020E88F0020F58F0020BD
:1022900070B5104D2888FFF7CDF804B228880130BA
:1022A00080B2FFF7C7F8030223439BB2FF22190055
:1022B0009143094800781B189BB208480380934358
:1022C000994202D0064BFE3A1A70024A1388023332
:1022D000138070BD0C90012004900120E88F002035
:1022E000F58F002010B5064B1888421C1A80FFF7A6
:1022F000A1F8044B1B78C018C0B2034B188010BD66
:102300000C900120EA8F0020E88F002070B50A4B66
:102310001888421C1A80FFF78DF884B22000FFF75E
:1023200089F805B2601CFF242040FFF783F8000203
:102330000543024B1D8070BD0C900120E88F0020EA
:1023400070B5144B1888421C1A80FFF773F803000D
:1023500080B2FF25AB431EB2421C12B2FF231340D2
:102360001E43B6B2FFF766F804B23000FFF762F81A
:10237000030223439BB21A00AA43074908781B189B
:102380009BB206490B80AB43934202D0044B01221F
:102390001A7070BD0C90012004900120E88F00207D
:1023A000F58F002010B5084B1888421C1A80FFF7E3
:1023B00041F880B2054B1880030603D5044B18433F
:1023C000024B188010BDC0460C900120EC8F0020FD
:1023D00000FFFFFF10B5084B1888013080B2FFF7EF
:1023E00029F880B2054B1880030603D5044B184327
:1023F000024B188010BDC0460C900120EC8F0020CD
:1024000000FFFFFF70B5094D2888FFF713F804B2ED
:102410002888013080B2FFF70DF800020443044B16
:102420001C802B8802332B8070BDC0460C9001208D
:10243000E88F002010B5044B1888421C1A80FEF764
:10244000F9FF024B188010BD0C900120E88F00208E
:1024500070B50C4B1888421C1A80FEF7EBFF0A4B34
:102460001C780419E4B22000FEF7E4FF05B2013441
:10247000FF202040FEF7DEFF00020543034B1D80D6
:1024800070BDC0460C900120EA8F0020E88F00202C
:1024900070B51F4B1888421C1A80FEF7CBFF1D4CED
:1024A00020701D4D00232B701C4A137080001C4BA4
:1024B000C358984723789B001A4A9B58984723781B
:1024C0009B00194A9B58194A11688C466344136053
:1024D0002A78002A06D0114A1278002A02D0013345
:1024E000124A1360114B1A68114B1A6011490122EC
:1024F00000230C684D6812196B410A604B600E4B4B
:102500001B78002B02D00D4B1B68984770BDC0464E
:102510000C9001200A900120F48F0020F58F0020FC
:10252000489E001030A3001030A70010E08A002061
:10253000DC8A002000860020D98F0020F88F01203F
:1025400070B500240C4B1B680C4A12689B1A9C4205
:102550000AD20B4D2A686B680A48FEF75DFE2860B8
:1025600069600134A4B2EDE7FEF758FF024B1A6828
:10257000024B1A6070BDC046E08A0020848F0020A4
:10258000108600201090012010B5024B1878FEF73D
:1025900011FF10BDEA8F002010B5024B1878FEF72E
:1025A00009FF10BD0490012010B5024B1878FEF70A
:1025B00001FF10BD0E90012010B5034B18781023B9
:1025C0001843FEF7F7FE10BD0984002070B50F4DCB
:1025D0002888013080B22880FEF7C4FE0C4C207899
:1025E00010231843FEF7E6FE237804221343082243
:1025F000934323700748FEF71DFF04B20648FEF719
:1026000019FF000204432C8070BDC0460C900120CD
:1026100009840020FEFF0000FFFF000010B5084BFA
:102620001B789B00074A9A58074B9A4205D0C1B2C3
:10263000064B1888FEF718FE10BD054B1870FBE717
:102640000A900120489E00105F030010E88F0020D0
:102650000E90012010B50400FFF77EF9044B18809E
:102660000123A340184380B2FFF7D8FF10BDC04636
:102670005090012010B50720FFF7ECFF10BD10B5FA
:102680000620FFF7E7FF10BD10B50520FFF7E2FFBA
:1026900010BD10B50420FFF7DDFF10BD10B50320FD
:1026A000FFF7D8FF10BD10B50220FFF7D3FF10BD14
:1026B00010B50120FFF7CEFF10BD10B50020FFF7C9
:1026C000C9FF10BD10B5024B1878FFF7A7FF10BD6A
:1026D000EA8F002010B5024B1878FFF79FFF10BD5E
:1026E0000490012010B5024B1878FFF797FF10BD3A
:1026F0000E90012010B50400FFF72EF9054B18804D
:102700000122A240FF235A4012B21040FFF786FF79
:1027100010BDC0465090012010B50720FFF7EAFF1A
:1027200010BD10B50620FFF7E5FF10BD10B5052060
:10273000FFF7E0FF10BD10B50420FFF7DBFF10BD71
:1027400010B50320FFF7D6FF10BD10B50220FFF72C
:10275000D1FF10BD10B50120FFF7CCFF10BD10B5A3
:102760000020FFF7C7FF10BD10B5FFF7F5F81C4BB1
:1027700018801C4B1A78D101FF230B4041080B43F2
:1027800019490B80C1071AD501210A4315490A705E
:10279000FF221A4218D0134A137802218B43137078
:1027A000114B1B881B0615D50E4A117880235B42FE
:1027B0000B4313700C4B1888FFF730FF10BD01213D
:1027C0008A4308490A70E3E7064A137802210B435B
:1027D0001370E5E7034A11787F230B401370E9E794
:1027E00050900120098400200690012010B500209F
:1027F000FFF714FF10BD000010B5FFF7ADF81A4B3E
:1028000018804308194A1380C2071BD518490A7853
:10281000012002430A70FF221A4219D0144A137889
:1028200002218B431370114B1B881B0616D5104ACF
:10283000117880235B420B4313700C4B1888FFF711
:10284000EDFE10BD0A490A78012082430A70E2E7D2
:10285000074A137802210B431370E4E7044A117806
:102860007F230B401370E8E7509001200690012071
:102870000984002010B5FFF76FF8134B188001385A
:1028800080B2124B1880FF23034211D0104A1378F4
:1028900002218B431370030610D50D4A1178802353
:1028A0005B420B431370094B1888FFF7B7FE10BD4E
:1028B000074A137802210B431370ECE7044A11789E
:1028C0007F230B401370EEE750900120069001200B
:1028D0000984002010B5FFF73FF81D4B1880420017
:1028E0001C4B1B7801201840104380B21A4A1080FC
:1028F000FF22010091431AD001221343154A13709D
:10290000FF23034218D0134A137802218B4313701C
:10291000114B1B881B0615D50E4A117880235B428C
:102920000B4313700C4B1888FFF778FE10BD012283
:102930009343084A1370E3E7064A137802210B43D6
:102940001370E5E7034A11787F230B401370E9E722
:1029500050900120098400200690012010B5FEF758
:10296000FBFF134B1880013080B2124B1880FF23FD
:10297000034211D0104A137802218B4313700306CF
:1029800010D50D4A117880235B420B431370094B1D
:102990001888FFF743FE10BD074A137802210B4346
:1029A0001370ECE7044A11787F230B401370EEE7B5
:1029B00050900120069001200984002070B5FEF798
:1029C000CBFF0C4D28800C4C23789843C0B2FFF706
:1029D00025FE2B8822781A4205D0084A1378022156
:1029E0008B43137070BD054A137802210B4313709B
:1029F000F8E7C046509001200E9001200984002085
:102A000010B5FEF7A9FF1C4B1880400080B21B4B8D
:102A10001880FF2302009A431BD0194A1378012122
:102A20000B431370FF23034219D0154A1378022178
:102A30008B431370114B1B881B0616D5104A117857
:102A400080235B420B4313700C4B1888FFF7E6FDA5
:102A500010BD0B4A137801218B431370E2E7084A3B
:102A6000137802210B431370E4E7054A11787F23A2
:102A70000B401370E8E7C0465090012006900120FB
:102A80000984002070B5FEF767FF0B4D28800B4CC2
:102A900023781843FFF7C2FD2B8822781A4205D00D
:102AA000074A137802218B43137070BD044A1378D0
:102AB00002210B431370F8E7509001200E90012083
:102AC0000984002010B584B00C2002F0B9F803ABE3
:102AD00002AA01A92E4800F0BBF8002803D12C4916
:102AE0002C4801F0F1FE039A0299019800F074F865
:102AF00004F0A8FA062409E02100274804F096FA19
:102B0000FA20800001F044FA013CE4B2002CF3D139
:102B1000224804F059FA80231B0206E0204A9A1842
:102B20002049895C204AD1540133204A9342F5DD83
:102B30001F48FEF701FBFEF785FE1E4C2000FEF746
:102B40000BFB2000FEF73AFB1B4C1C4820601C4B83
:102B500000221A6000F0F9F82268D0231B061A62DE
:102B600001F0B2FA002903DB164B1860596007E048
:102B7000154B164A3F21164801F00CFEFFF788FC62
:102B8000144B1B78002BF9D1002004B010BDC046B7
:102B9000C045040074A20010A8A20010BCA200103E
:102BA0000080FFFF08040020F88F0020FFFF0000D6
:102BB0004125001010900120F08F0020FF807F0041
:102BC0000090012048900120C8A20010189E00101B
:102BD000E4A2001008840020F0B583B005000E00C8
:102BE000140000F019F9002801D003B0F0BD154F12
:102BF00000973B0001220121053001F07DFE009489
:102C000033002A000121104801F07AFF21007143AE
:102C1000280003F079F904000C4B009300220221F4
:102C2000042001F069FE0094230000220121052008
:102C300001F062FE00973B0002220021062001F015
:102C40005BFED2E7006CDC0200800240001BB70094
:102C5000F0B5DE4657464E464546E0B583B0060021
:102C60008B4690460193042001F044FFFA2189002D
:102C700003F04AF98246A0235B0099462DE0013C0F
:102C8000002C21D025007D432900009803F03CF959
:102C9000B042F4D12900009803F036F90029EED1B2
:102CA000009A53019B1A9B009E18F3005A4613602A
:102CB00043461F60019B1C60012003B03CBC904652
:102CC0009946A246AB46F0BD013F002F01D03C0023
:102CD000D6E701235B429C46E1444B460F2B0BD9C0
:102CE00053464A4653430093044A9C466244044B6D
:102CF0009A42EED80727E8E70020DEE7508EF4FF7F
:102D000050F80C0010B58300084A944663441C68D0
:102D100040226240C02414408022520113431C60B0
:102D2000C000034B9C466044416010BD04C001409C
:102D30000040014010B501238340D0221206936267
:102D400093610521FFF7DEFF10BD70B5050000247B
:102D500004E02000FFF7EEFF6D0801341D2C02D8BF
:102D6000EB07F9D5F5E770BDEFF3108072B6034BB2
:102D70001B68002BFBD0BFF35F8F70472C0100D086
:102D8000BFF35F8F024B00221A6080F310887047F8
:102D90002C0100D070B505000E001400FFF7E4FF11
:102DA000F208AA1815780721314001238B402B42E5
:102DB00005D1DBB22B431370FFF7E2FF70BD31008A
:102DC000200001F081FDF0B583B0070001911400EF
:102DD0001E00FFF7C9FFB4420ED8E208BA181578F2
:102DE0000721214001238B402B4201D00134F2E71F
:102DF000DBB22B43137001E001246442FFF7C0FFF4
:102E0000002C02DB200003B0F0BD019B002BF9D0A9
:102E1000089801F059FD0000034B1B680220184080
:102E2000431E9841C0B2704700C0064000231F2BCC
:102E300008D8054A9A189200BFF35F8F00211160ED
:102E40000133F4E77047C04640000034054A10786B
:102E5000431CDBB21370172B02D9130010221A7017
:102E60007047C0460A84002000B583B00100044BBF
:102E700000931F2318220348FFF7A5FF03B000BDEE
:102E800030AB0010D88A0020074B9B6810308000C0
:102E90001950BFF35F8FBFF35F8F044B00211960A0
:102EA00082F310887047C04600ED00E0240100D096
:102EB00010B5091A0B1F0A4A94466144094A914207
:102EC00008D8DA0706D45B105B055B0D064818438B
:102ED00080B210BD054B064A9921064801F05AFC04
:102EE000FC070000FE0F000000E0FFFF70AD0010C7
:102EF00068AB0010A0AD001010B5091A04394C08D9
:102F0000090B08D14905490D064A11430180064BBA
:102F10002343438010BD054B054AA121054801F01C
:102F200039FCC04600F0FFFF00F8FFFFE4AB0010E3
:102F300074AB0010A0AD001001238340034A106859
:102F40001840431E9841C0B27047C04600E100E0FF
:102F5000002904D0034B1860034B18607047034BE3
:102F60001860FBE780E200E000E100E080E100E0C3
:102F700010B5012383401800FFF7EAFF10BD0000E1
:102F800001238340014A13607047C04600E200E01D
:102F9000024B9B6810308000C058704700ED00E085
:102FA00010B5FFF7F5FF002805D0054BC01A2F28F4
:102FB00003D8012010BD0020FCE70020FAE7C0463E
:102FC0000C84002070B504000D00EFF3108672B67B
:102FD0000C4B1B68002BFBD0BFF35F8F2000FFF76B
:102FE000D7FF094B984201D0A84205D132002900F1
:102FF0002000FFF749FF70BD044B054A7C210548BE
:1030000001F0C8FB240100D0CD01001038AD001044
:103010004CAB0010A0AD0010F0B5DE4657464E4652
:103020004546E0B589B0019003911700EFF3108B8E
:1030300072B6714B1B68002BFBD0BFF35F8F6F4BD9
:1030400000255D57002D40DB6B005B199A006C4832
:103050001318029306229A56684B1A70694B9A68A5
:10306000019B10339B00D6583400331A2F2B38D9CC
:10307000654B9E422FD105AC644B23806B009A4672
:103080005B1998005E4E801902306149FFF710FF0E
:103090006080604BA380FF23A371E771039BA36053
:1030A0005544AB00F6180ECC0EC60126029B3343E6
:1030B0001E005A4631000198FFF7E6FE09B03CBCFD
:1030C00090469946A246AB46F0BD534B534ACD219C
:1030D000534801F05FFB534B504AD421504801F054
:1030E00059FBC04330180C2102F00EFF002912D109
:1030F00001239C43A24623000024DA79BA4211D965
:103100000621595600290CDB4A00521891001C0078
:103110003B4B5B18F1E7444B404AE021404801F04B
:1031200039FB1C00002C3BD005AB404A1A80813A89
:103130005A800623E3569846002B18DABD20000279
:1031400005AB9A46988042469A71DF71039A0792BE
:10315000201D0299FFF7ACFEA080A5716B005D19E0
:10316000AA00274B9B18524613CA13C3A1E76B0052
:103170005B199800224BC0180430221DA388D90A7D
:103180001C2907D159054915023149005118FFF78B
:103190008FFED5E7264B274AA721214801F0FAFAEE
:1031A00005AC1A4B23806B005B199800144E8046C7
:1031B000B0444346981C1649FFF77AFE60804346A8
:1031C000181D5146FFF774FEA0801B4B5246921B00
:1031D000524153431B0DA371E771039BA360464605
:1031E0000ECC0EC6114B52461380813B53800126F4
:1031F000029B33431E005CE7240100D0DB8F0020DC
:103200000C84002000ED00E0CD01001000A1FFFFC4
:103210003C84002000BDFFFFF4AB00109CAB00100D
:10322000A0AD00101CAC001044AC00100148000020
:10323000B8AC00108CAB0010AAAA0000F0B5C646CE
:1032400000B584B001900D00EFF3108672B6554BB7
:103250001B68002BFBD0BFF35F8F534B9A68019C18
:103260001034A300D758514B9F4207D0AF4200D132
:1032700096E002974E4BFB1A2F2B08D932003900EB
:103280000198FFF701FE04B004BC9046F0BD019820
:10329000FFF752FE039000210198FFF769FEBFF38C
:1032A0005F8FFCF7E0FF011E01D0844211D10123A2
:1032B000029C9C430020A368AB4212D00622A25677
:1032C000002A0DDB53009B189A002000384CA418EC
:1032D000F1E72C21374B384AFF31384801F05AFAD0
:1032E0002000AB4255D10623E3569846002B36DB2F
:1032F0005A00424491002E4B5B189A68A260DA791A
:10330000E2719B795BB2A371002B12DABD2000023F
:10331000A08043465B0043449A00254B9B18284AF3
:10332000117899714346137003990198FFF720FEB5
:10333000A4E7201D1E4A8B181A1D9B88D90A1C2938
:1033400007D159054915023149005118FFF7B0FD61
:10335000DEE71C4B1C4AA721184801F01BFA002984
:1033600012D100280ED0FF238371184B8380144A9A
:103370001378A371164B0E49641A644163431B0D05
:103380001370D1E7094FF2E7201D1249FFF7B4FD92
:10339000CAE76021104B084AFF31084801F0FAF9EA
:1033A000024F6BE7240100D000ED00E0CD010010DA
:1033B0000C8400200CAD0010B4AB0010A0AD0010C8
:1033C000DB8F0020B8AC00108CAB001000BDFFFFFD
:1033D000AAAA00004684002030AD0010F8B5040011
:1033E000012606432D4BF31A2F2B28D8FCF73BFF61
:1033F00000282BD0EFF3108772B6294B1B68002BE7
:10340000FBD0BFF35F8F274D22002449521A52414F
:1034100055432D0D6DB2244B9B6880001B58B34261
:103420001BD00023032B32D85A00D21891001B4A1C
:103430005218927952B2AA421FD00133F2E7C22148
:103440001A4B1B4A49001B4801F0A4F988211A4B6A
:10345000174AFF31174801F09DF9134B9B68174A33
:103460001A50174B1A78A2711D70BFF35F8F0C4B67
:1034700000221A6087F31088F8BD08495A00D61850
:10348000B0000818FF2686710E4B8380E9E7CC2137
:103490000D4B074A4900074801F07CF90C840020D5
:1034A000240100D0AAAA000000ED00E0D0AC00107A
:1034B000C8AB0010A0AD0010F8AC0010CD0100109A
:1034C000DB8F002000BDFFFF04AD00100022044B85
:1034D00002E0044902C30132072AFAD97047C04604
:1034E00000E400E08080808000B583B00100D0233C
:1034F0001B061868064B1818064B0093052300227C
:10350000FFF761FC002801DB1F23181A03B000BD80
:10351000D48F0020E4AD0010024B9C46614489002A
:1035200001607047400000340A4B1A68EFF31081C5
:1035300072B61368002BFCD0BFF35F8F054B1B687E
:10354000BFF35F8F00221A6081F3108840BF002014
:1035500000217047A48F002070B505000C00080002
:1035600000F0A6FD200000F0ADFE0849200000F0AC
:10357000EDFDFFF76BFC064B9C46604480006860E5
:103580002C75A400034BE55070BDC046793800107F
:1035900040000034888F002010B5002922D0036835
:1035A0001B7B99421ED8174B9C46614409018368D6
:1035B0009C4661440C684968002A19D003681B7B4B
:1035C0009A4215D883680F488446624412019A18BB
:1035D00010685368020001208B4201D80ED00020F1
:1035E000C0B210BD084B094A3B21094801F0D2F88E
:1035F000054B064A3B21064801F0CCF8A242EFD821
:10360000EDE7C046FFFFFF0FB0AF001058AE00104F
:10361000B8B0001010B500291ED0037B99421BD80A
:103620004B005B18033B0468A4466344002919D08F
:10363000002A1DD0914221D0002A25D0047BA2422D
:1036400022D8046850008018033820188170197837
:1036500000291FD11A7010BD104B114A6821114862
:1036600001F098F8104B114A6F310E4801F092F8B2
:103670000F4B0E4A70210B4801F08CF80D4B0B4A92
:103680007121084801F086F8044B054A6821054875
:1036900001F080F841701A70DDE7C04608B00010F4
:1036A00018AE001024B0001074B0001024AE00104A
:1036B00080B000108CB0001070B506000D00140032
:1036C000002914D0002A14D0806873689847002815
:1036D00006D0220029003000FFF79CFF280007E0F9
:1036E0002A0021003000FFF795FF200000E01000C5
:1036F00070BD0800FCE7000070B5CE4600B583B091
:103700000500009201930AAB1C780BAB1B7899461D
:10371000002C28D003685A7B944209D10123002B46
:103720001BD1002C3DD1200003B004BC914670BDDC
:10373000002C0CD01A7B944209D81A6863001B191C
:10374000033BD3189B78002BE9D00123E7E73F4BDD
:103750003F4A68213F4801F01DF83F4B3F4A652131
:103760003F4801F017F803689C7B002CD9D012D099
:103770001A7B94420FD862001219033A19688C46DA
:10378000624451789973002900D1D9730023937052
:1037900053701370C5E72D4B2D4A68212D4800F05A
:1037A000F9FF002C3BD02B681B7B9C4237D82D4B5C
:1037B000E3181B01AA68944663440099019A1960B2
:1037C0005A60089A9A60099ADA602E68002C2CD008
:1037D00031D0337B9C422ED863001B19033B3268E7
:1037E0009446634400229A705A701A70717B2200CA
:1037F0003000FFF761FF7073844200D093E7287DAB
:10380000009A019B00F0EAFC061E02D04B46002BFA
:1038100017D00C9B002B00D185E71E7083E7124B5D
:10382000124A3B210E4800F0B5FF114B114AA52169
:10383000084800F0AFFF054B054A6821054800F035
:10384000A9FF2868210000F0F3FEE2E708B00010AD
:1038500018AE001024B00010DCAE001090AE0010C6
:10386000B8B00010FFFFFF0FB0AF001058AE00104F
:10387000B4B0001038AE0010F0B5DE4657464E46E4
:103880004546E0B58BB00990002308938200B24B07
:10389000D7583D0052E0B14BB14A3F21B14800F04A
:1038A00079FFB14BB14A3B21B14800F073FF002BC7
:1038B00001D1002A68D10021604600F0AFFEA0428D
:1038C00019D13268736806920793B3689846F36813
:1038D0009A464346002B14D0002C18D02B681B7B33
:1038E0009C4214D8631EEA68D35C08931B021843F9
:1038F0002861002015E09F4B9F4A8C219C4800F0D6
:1039000049FF9E4B9C4A9021994800F043FF964BFB
:103910009B4A4021964800F03DFF00239A46984676
:1039200000206B68BFF35F8F00221A6087F3108856
:103930004346002B31D1002800D105E100F0C4FB43
:103940000029A8DB00230024069307946A68EFF39C
:10395000108772B61368002BFCD0BFF35F8F2B6803
:103960009C465C7B002CD8D09BD01B7B9C4298D87B
:10397000844BE6183601AB68984646443268736853
:10398000121A8B41002B92DD32687368099800F09F
:1039900025FC00239A469846C3E7089B1B02234355
:1039A000994651461800C04706000F006A68EFF3B9
:1039B000108B72B61368002BFCD0BFF35F8F002F03
:1039C00026DB002F52DD2B69002B53D04B4574D1E1
:1039D00000F07AFB02000B1E75DB01001800921943
:1039E0007B41984202D804D1914202D9012252422D
:1039F000D317002B6DDB0021049101310391029458
:103A000051460191414600912800FFF775FE4BE0B9
:103A10002B69002BD5D04B451CD1069A079B100073
:103A20001900921BBB41994202D804D1904202D99D
:103A300001225242D317002B12DB002104910131E5
:103A40000391029451460191414600912800FFF7ED
:103A500053FE29E04C4B484A9F21454800F09AFE0E
:103A60003E4B3F4A3F213F4800F094FE002F01D1DA
:103A7000002EA8D12A68002C47D0537B9C422ED11F
:103A80000123002B41D1D37B002B44D1D473002CD4
:103A900054D02B681B7B9C4250D8013CEB689C4661
:103AA000644423780133237000232B616A68BFF3D9
:103AB0005F8F13608BF3108840E7334B2E4AA221AF
:103AC0002B4800F067FE254B254A3F21254800F092
:103AD00061FE224B224A3F21224800F05BFE002C6F
:103AE0000DD0137B9C420AD863001B19033B11685D
:103AF0008C4663449B78002BC3D00123C1E7234B42
:103B0000234A6821234800F045FE234B234AF6212F
:103B1000204800F03FFE002B0AD0117B8B4207D8D3
:103B20005900CB18033B11688C4663445C70ADE7C9
:103B3000164B174A6821174800F02CFE0A4B104A12
:103B400040210B4800F026FE0BB03CBC9046994645
:103B5000A246AB46F0BDC046888F0020C8A2001028
:103B600000AE0010E4A20010B0AF001058AE00107C
:103B7000B8B0001004AF0010A8AE00101CAF0010C9
:103B800064AE0010FFFFFF0F28AF001008B0001058
:103B900018AE001024B0001064AF001048AE001042
:103BA00010B50A4B5B68002B04D00A210848FFF7C8
:103BB000B3FC10BD054C2300064A1021206800F01C
:103BC0004BFC03212000FFF7C7FCEEE754840020E4
:103BD000A48F00209935001010B5064B5B68002BB0
:103BE00001D0044810BD044B044A5C21044800F095
:103BF000D1FDC04654840020E4AF001078AE001020
:103C0000B8B00010F0B5D6464F464646C0B588B0AD
:103C1000804616001F00109B994612AB1B789A46EF
:103C20001F236B4400221A7032E0002809D042465C
:103C30001268127B904204D8421E4146C9688A5CD1
:103C400042E03F4B3F4A40213F4800F0A3FD0020A7
:103C5000002B6DD05346002B6AD01199C847040041
:103C60000D0003000B4369D000293FDB00F02CFA64
:103C700000294FDB24184D41A94202D804D1A042AB
:103C800002D901246442E517002D49DB26002F00EC
:103C900043465A68EFF3108472B61368002BFCD0C9
:103CA000BFF35F8F1F236B4404930023039302939E
:103CB000119B01934B46009332003B004046FFF7B7
:103CC0001BFD031EB1D1020041464968BFF35F8F5F
:103CD00000250D6084F31088002B27D01F236B4430
:103CE0001B78002BB3D112021043B1E732003B0026
:103CF000361BAF41BB4202D804D1B24202D90126E1
:103D00007642F717002FC3DA104B114A3F211148B2
:103D100000F040FD0D4B0E4A3F210E4800F03AFDE9
:103D20000A4B0B4A3F210B4800F034FD0120404272
:103D300008B01CBC90469946A246F0BD0020F7E7AB
:103D4000B0AF001064AE0010B8B00010C8A20010F0
:103D500000AE0010E4A2001070B504004268EFF35A
:103D6000108572B61368002BFCD0BFF35F8FCAB208
:103D70002668737B9A421BD1012000284AD0236910
:103D80008B422DD0090AC9B2002A30D023681B7B90
:103D90009A422CD8531EE068C35C8B422DD0002081
:103DA0006368BFF35F8F00221A6085F3108870BDCF
:103DB000002A0DD0337B9A420AD853009B18033B4C
:103DC0003068844663449B78002B07D10020D4E7F9
:103DD000134B144A6821144800F0DCFC0120CCE7A6
:103DE0008521124B124A4900124800F0D3FC124BB5
:103DF000124A40210F4800F0CDFC1100300000F0C5
:103E000017FC0028CCD112210D4B094AFF3109487B
:103E100000F0C0FC23698B42C2D100232361BFE7BD
:103E200008B0001018AE001024B0001088AF0010C9
:103E3000C4AE0010B8B00010B0AF001064AE0010F7
:103E4000ACAF0010F0B587B006000F00FCF70BFA1E
:103E500000281ED106246442E517A4197D41BD4205
:103E600002D803D1B44201D900240025002D13DB70
:103E70000494059500F028F9002913DB241A8D41DC
:103E8000002D17DC14D03000390000F029F907B0FC
:103E9000F0BD234800F018FD224B234A3F21234860
:103EA00000F078FC1F4B204A3F21204800F072FCB4
:103EB000002CE8D0FFF790FE0023029301931C4BE7
:103EC0000093049A059BFFF79DFE002818DADAE7B5
:103ED000002300E00023002BD5D1164B1A68EFF326
:103EE000108172B61368002BFCD0BFF35F8F114BAB
:103EF0001B68BFF35F8F00221A6081F3108820BF18
:103F00000499059A0C4B5B6A9A42E3D80A48806A86
:103F1000884203D29A42DBD00123DCE70123DAE7AF
:103F2000F8B00010C8A2001000AE0010E4A200100B
:103F300029350010A48F00200040054070B5040012
:103F40000D0000F0C1F8002910DB02000B00001981
:103F500069418B4202D804D1824202D901204042F9
:103F6000C117002908DBFFF76DFF70BD054B064A3E
:103F70003F21064800F00EFC024B034A3F21034854
:103F800000F008FCC8A2001000AE0010E4A200106F
:103F900010B5FA2292000023002102F0F9FDFFF78C
:103FA000CDFF10BD70B584B005000C00FFF714FE06
:103FB000002302930193194B00932A002300FFF77B
:103FC00021FE061E12DC164B5B6A9C4209D8144A7D
:103FD000926AAA4208D29C4201D0012002E000204D
:103FE00000E0002004B070BD0120FBE720BFFFF718
:103FF000F3FD3100FFF7B0FE094B5B6A9C4209D824
:10400000074A926AAA4207D29C4201D00120E9E7FE
:104010000020E7E70020E5E70120E3E7293500106D
:104020000040054070B5EFF305833F20184010387D
:10403000EFF3108472B6194B1B68002BFBD0BFF353
:104040005F8F012319008140154A5163154A127888
:104050001500C5402B4214D0114B5D6A8300124EEF
:104060009B599D4206D38300104D5B598A430D49ED
:104070000A7007E00A4A031D9B00995899500023D3
:1040800000E00023BFF35F8F044A0021116084F336
:104090001088002B00D0984770BDC046280100D082
:1040A00000400540DF8F0020B08F0020C88900202D
:1040B00010B50100024A0348FEF76CFE10BDC04671
:1040C0007CB10010DA8F0020044B596A00E019001F
:1040D000024B986A5B6A9942F9D1704700400540EB
:1040E000074B5B6A8B4204D2054B5B6AFAE7044BD1
:1040F0005B6A8B4203D1024B9B6A8342F7D37047C2
:104100000040054070B504000D00FFF7DDFF020020
:104110000B0020002900801859418B4202D804D19D
:10412000824202D901204042C117002902DBFFF779
:10413000D7FF70BD024B034A3F21034800F02AFB22
:10414000C8A2001048B10010E4A2001070B504002D
:104150000D00EFF3108672B61B4B1B68002BFBD0D3
:10416000BFF35F8F002D1CD02000FEF711FF174B0F
:1041700098420BD019002000FEF724FF01212000F7
:10418000FEF7F6FE0123A340114A1360A400114B71
:10419000E550BFF35F8F0C4B00221A6086F3108846
:1041A00070BDA2000B4B0021D1500122A2400A4950
:1041B0000B7893430B7005492000FFF73FF800216F
:1041C0002000FEF7D5FEE4E7280100D025400010CE
:1041D00038600540C8890020DF8F0020F0B5DE463A
:1041E00000B584B00500140001921E000293FFF791
:1041F0006BFF03948E4202D84ED184424CD9EFF328
:10420000108B72B6274B1B68002BFBD0BFF35F8F60
:10421000254A17780124AC40E3B23B431370234B8B
:104220005C632A1D92000199D150AA00204902988E
:1042300050501B6A234212D11C4B1B6C234208D0E6
:104240000020BFF35F8F174B00221A608BF310889A
:1042500023E0184B184AC121184800F09BFAFFF7D9
:1042600033FF8E4214D802D1039B834210D80E4BE9
:104270001B78BB420ED00D4B1C625C631F222A4090
:10428000012393400E4A1360074B1F700120D8E7AB
:104290000020D6E70120D4E7012004B004BC9346F7
:1042A000F0BDC046280100D0DF8F0020004005404F
:1042B000B08F0020A0B1001060B10010C4B1001098
:1042C00080E200E010B5EFF3108472B60A4B1B6871
:1042D000002BFBD0BFF35F8F01238340074A13629B
:1042E00007490A789A430A70BFF35F8F024B002296
:1042F0001A6084F3108810BD280100D000400540EA
:10430000DF8F002010B500291ED0037B99421BD8F7
:104310004B005B18033B0468A4466344002919D092
:10432000002A1DD0914221D0002A25D0047BA24230
:1043300022D804685000801803382018817019783A
:1043400000291FD11A7010BD104B114A6821114865
:1043500000F020FA104B114A6F310E4800F01AFAA3
:104360000F4B0E4A70210B4800F014FA0D4B0B4A0C
:104370007121084800F00EFA044B054A68210548EF
:1043800000F008FA41701A70DDE7C04608B000106E
:104390000CB2001024B0001074B0001018B200105D
:1043A00080B000108CB0001070B506000D00140035
:1043B000002914D0002A14D0806873689847002818
:1043C00006D0220029003000FFF79CFF280007E0FC
:1043D0002A0021003000FFF795FF200000E01000C8
:1043E00070BD0800FCE7000010B5002343730133E3
:1043F0008373037BC3730123027B9A4214D9002B7E
:104400000CD0027B934209D85A00D218033A0168B3
:104410008C4662440133DBB25370EDE70B4B0C4A20
:1044200068210C4800F0B6F9002A09D0924207D85A
:10443000016853009A18033A8A180023537010BD7C
:10444000024B034A6821034800F0A4F908B00010A9
:104450000CB2001024B0001010B5017342608360EC
:10446000FFF7C2FF10BD000070B50400002901D1A4
:10447000080070BD002934D0037B994231D84B002D
:104480005B18033B0268944663445A78002AEFD0D5
:104490002DD0037B9A422AD853009B18033B006817
:1044A000844663445D7800205870002925D0237B22
:1044B000994222D84B005B18033B20688446634432
:1044C000002058702000FFF76FFF06002900200031
:1044D000FFF7CAFF020031002000FFF765FF01006F
:1044E000C6E7094B094A6821094800F053F9064B11
:1044F000064A6821064800F04DF9034B034A68213B
:10450000034800F047F9C04608B000100CB2001094
:1045100024B0001070B505000C001600002928D04A
:104520002DD0037B99422AD84B005B18033B0268CD
:10453000944663445A78002A27D19A78002A2AD1CF
:104540001978FFF791FF0300002E03D0EA7B002AC1
:1045500027D1EC73002B37D1002C49D02B7B9C4208
:1045600046D82A6863001C19033C141900236370A1
:1045700070BD224B224A3821224800F00BF9224B11
:10458000224A6821224800F005F9224B1C4A3A21B0
:104590001C4800F0FFF8204B194A3B21194800F055
:1045A000F9F8002A0AD0297B8A4207D851008A18D4
:1045B000033A29688C4662445470CAE7124B134A86
:1045C0006821134800F0E6F8002B0BD02A7B9342B9
:1045D00008D843001B18033B2A6894466344002212
:1045E0009A70B9E7084B094A6821094800F0D2F8E7
:1045F000054B064A6821064800F0CCF878B2001056
:104600002CB2001080B2001008B000100CB20010E4
:1046100024B00010C0B20010E8B2001070B5040061
:104620000A00457B2900FFF775FF6073280070BD05
:1046300010B50400002966D0437B8B420ED00029C0
:1046400011D0037B99420ED84B005B18033B0268E4
:10465000D0188378002B0CD1002055E00121FFF702
:10466000DDFF012050E0294B294A6821294800F04C
:1046700091F8002B1FD0227B93421CD85A00D318EC
:10468000033B2268D21813788B421AD0002B1BD020
:10469000227B934218D85A00D318033B2268D218C1
:1046A00053788B4216D0002BF0D11B4B1B4A67214D
:1046B0001B4800F06FF8154B154A6821154800F0AB
:1046C00069F84378137007E0104B114A68211148CC
:1046D00000F060F843785370002383704370012228
:1046E0002000FFF717FF0200617B814205D0200008
:1046F000FFF75AFE6073012006E00A4B074A6D215E
:10470000074800F047F8002010BDC04608B0001070
:104710000CB2001024B0001004AD001040B2001024
:1047200080B2001058B2001010B50400FEF78EFBE6
:1047300001002000FEF7F0FEFF232371BFF35F8F1F
:1047400010BD10B50400FEF781FB01002000FEF74C
:10475000E3FEFF23237100236371BFF35F8F10BD5E
:10476000034B9C46614489000160BFF35F8F704733
:104770004000003410B504000120FEF775FB010075
:104780002000FFF7EDFF10BD00BEFDE710B5FFF7FD
:10479000FBFF000010B582B00C001900002A0CD0FD
:1047A000084B002A0BD00192009323000200064818
:1047B00002F03CFC0120FFF7E7FF044BF1E7034A5E
:1047C000F1E7C046DCB30010ECB30010B8A2001053
:1047D00070B52B4B2B4A1A602B4B2C4A1A602C4B72
:1047E0009A682A4B9343FAD12A4C01E008CC9847A7
:1047F000294B9C42FAD300F0FDF8234B274A1A605C
:10480000234B9B68DB43DB01FAD1254B40229A679F
:104810005A671A67DA66234C09E0234B234A83213F
:104820002348FFF7B7FF2000FFF77EFF0834214B36
:104830009C4209D22368002BF5D0012BEDD120003A
:10484000FFF77FFF0834F2E71B4CA1681B4DC02225
:10485000280002F05DFAA560FBF705FD002800D0F6
:1048600000BEFEF7E3FAFEF731FEFFF799F9144CAC
:1048700001E008CC9847134B9C42FAD370BDC04668
:1048800000E00040BFCDFBFE00F00040FE7F3C009A
:1048900000C00040E8840020F8840020FFFFFF01F2
:1048A00000F00140E084002040B400101CB400106F
:1048B00060B40010E884002000ED00E0000000205B
:1048C000F8840020008500200FB400B583B00848AC
:1048D00002F07AFB049B002B07D005A90191180078
:1048E00002F082FB034802F06FFB0120FFF74CFF50
:1048F0002CB400103CB40010F0B5DE46574680B52D
:1049000083B007000E0092460A9A93424CD3190EC8
:1049100001911B02180000930A9A002301F036FB54
:1049200005007B00DB199C002D4B9C4664446368AA
:10493000834200D260603B1FDBB29B46012B39D91A
:10494000C0239B012343802212011A60BB00254A29
:104950009958002905D0506901F0D6FA0130013884
:10496000FDD153465B0122685340E0221340802270
:104970005201224313605B46012B26D980239B0101
:104980002343802212011A6065602A0000230098E8
:10499000019901F0FBFABF00124BF850012003B05F
:1049A0000CBC92469B46F0BD0F4B104A2D2110487F
:1049B000FFF7F0FE012EC3D1C0239B012343032246
:1049C0001A60A368DB07FCD5CBE72168714003239D
:1049D0000B401360A3680122B2401A42FAD0CDE71F
:1049E00000800040E48A0020B8B40010A8B4001091
:1049F000CCB4001030B583B00C2000F02FF9FEF7D6
:104A00000BFA00280DD00023092B05D899002D4A58
:104A10002D4888500133F7E72A4B2C4A5A6203B0DD
:104A200030BD2B4B00229A6700F086F9294B0122FA
:104A30001A60274B5B6C012BFBD1274B03221A60BA
:104A4000234B9B6B012BFBD1013300930433234A8F
:104A50000121234800F054F805230093214A012145
:104A6000214800F04DF8214B009300220221042040
:104A7000FFF742FF1E4D00952B000022012105206B
:104A8000FFF73AFF104C009423000022002107207A
:104A9000FFF732FF00942300002200210820FFF7D7
:104AA0002BFF0A4B00932300002200210920FFF76F
:104AB00023FF00952B00002200210620FFF71CFF9A
:104AC000ADE7C046E48A0020006CDC021BB70000A2
:104AD000008000403CB0004030B00040002F6859DA
:104AE00000800240008C864700C00240001BB700D7
:104AF000405973078000014BC0587047E48A00207A
:104B0000F0B583B00500019114001F000C2001F0E6
:104B1000FBF906003D4BE2183D4B9A4242D8420158
:104B2000121A93019B1ADB001B189901200001F057
:104B3000EBF90200103A98235B009A4238D87B1EAA
:104B4000062B3BD8089B013B062B37D8089B9F427E
:104B50003AD32309B3423DD33F04089B1E033E438F
:104B60002B68002B3CDB2B4B9D424BD08021490115
:104B7000294B1960294B1960294A92680B0093430D
:104B8000FAD1019B2B60A8602A1DC0239B0113430F
:104B900021221A602A68002AFCDAEE6008221A60D4
:104BA00003B0F0BD1F4B204A11212048FFF7F2FD52
:104BB0001F4B1D4A19211D48FFF7ECFD1D4B1A4ADA
:104BC0001C211A48FFF7E6FD1B4B174A2221174804
:104BD000FFF7E0FD194B144A25211448FFF7DAFDD1
:104BE0002A683F231340019A9342BCD1AB681B054E
:104BF0001B0D8342B7D1EB68EE22D2021340B342C1
:104C0000B1D1CDE780218901B2E7C04680E84BD31E
:104C100080F8A93200C0024000E0004000F00040EF
:104C200000C0004024B5001018B5001084B5001075
:104C3000C8B50010E4B5001030B6001048B600103A
:104C40000001044B1B685840F0231840024B1860C9
:104C50007047C046004006400050064080239B003D
:104C60000343014AD362704700800540024B1A6833
:104C7000024B5A607047C0467C8F00200080054080
:104C800010B5164B8022D2051A60154B154A1A60D2
:104C900000290AD0144BE022D2041A60002809D15E
:104CA000114B802212061A6010BD0C4BE022D20478
:104CB0001A60F3E743011B1A9B00181803010B4A03
:104CC00013600B4A934201D9084B1A60FFF7CEFFDD
:104CD000054B8022D2051A60E6E7C04600B00540C9
:104CE00008200140FCFF010000A005407C8F00204F
:104CF000FFFFFF0010B50C4B8024E4051C6000286A
:104D00000ED001230343094C0948E061094858408B
:104D100020626162A36200211000FFF7B1FF10BDA5
:104D2000024B0021D961F6E700B005400080054044
:104D3000D3C007B02D3FF84F064BAA2212011A60CC
:104D40002F22DA60044B054A1A60024B5B68002B85
:104D5000FBDA7047004002400060024000B0FA00F9
:104D6000704710B5002802D00B684968984710BDFD
:104D700010B50400002321680A78303AD2B2092A1B
:104D800008D89800C31858004B1C23600B781B18D8
:104D9000303BF0E7180010BDF0B5D6464F4646460A
:104DA000C0B582B005000091904601930A9B9946D8
:104DB0000B9C0C9E0D9B9B070CD04E460C9B994662
:104DC000002C19D0013C571C305D019B0099A8476D
:104DD0003A00F5E72700A246B74207D2541C019BD0
:104DE00000992020A84701372200F5E754460C9689
:104DF0004E460C9B9946E3E74E460D9B9B0706D417
:104E0000100002B01CBC90469946A246F0BD474631
:104E1000D31BB342F4D2541C019B00992020A84715
:104E20002200F5E7F0B5CE4600B586B004920593B2
:104E30000C9D0D9C0EAE33789946109F119B129ECF
:104E4000B2071BD4002B08D0F20706D54A46002A29
:104E500002D10C32324200D0013BBC4208D21F2C9E
:104E600006D830222A550134F7E730222A5501347A
:104E7000F20703D59C4201D21F2CF6D9F20615D5B4
:104E8000720505D4002C03D0BC4223D09C4221D013
:104E90000F9A102A2AD00F9A102A2FD00F9A022A7E
:104EA00034D01F2C02D830272F5501341F2C05D8A1
:104EB0004A46002A30D02D272F55013403960293FD
:104EC00001940095059B049AFFF766FF06B004BCA9
:104ED0009146F0BD671E002F06D00F9A102A01D010
:104EE0003C00D5E7023CD3E73C00D1E7B206D2D480
:104EF0001F2CD0D878272F550134D2E7B206CDD554
:104F00001F2CCBD858272F550134CAE71F2CC8D8DF
:104F100062272F550134C4E7720703D52B272F557D
:104F20000134CBE73207C9D520272F550134C5E717
:104F3000F0B5CE46474680B595B0089009910A92E3
:104F40000B931CAB10CB1B7898461E9D219B99465A
:104F5000002C03D110234A469A4391468027FF0034
:104F60004B461F4018D0002C22D0002714E04A46A0
:104F700092061BD54121C918C9B20A39C9B27E1C93
:104F80000CABD9552900200000F0BEFFAC4210D375
:104F90001F2E0ED8370004002900200000F0B4FFB7
:104FA000CBB2092BE3D83033D9B2E8E76121E2E78D
:104FB00026004B460693209B05931F9B0493039565
:104FC0004346029301960CAB00930B9B0A9A0999F6
:104FD0000898FFF727FF15B00CBC90469946F0BD26
:104FE000F0B5DE46574680B597B00A900B910C920B
:104FF0000D931E9A08921F9C20AB1B789B46229B08
:105000000993239D269B9A462243131E03D11033F6
:1050100052469A4392468026F60053461E4006D0DA
:10502000089A1300234333D0002637001AE03700D4
:1050300018E05246920621D54122D218D2B20A3A3D
:10504000D2B27E1C0EABDA55099A2B0008982100CB
:1050500000F09CFFA5421DD812D01F2E16D8370095
:1050600008900C00099A2B000898210000F08EFF90
:10507000D3B2092BDDD83033DAB2E2E76122DCE7C4
:10508000099B089A9342E8D9370004E0370002E010
:10509000002700E0370053460693259B0593249B89
:1050A0000493099B03935B46029301970EAB009315
:1050B0000D9B0C9A0B990A98FFF7B4FE17B00CBC25
:1050C00092469B46F0BD0000F0B5D6464F46464698
:1050D000C0B594B00A9006910B9207931C9C08945B
:1050E0001D9D099522002B002000290001F0DDF90B
:1050F000002800D0E8E001225242D64B20002900CF
:1051000001F0CEF9002800D0DEE001225242D24B5D
:105110002000290001F0AEF9002800D0D4E00022E0
:105120000023089D2800099C210001F0A3F9002814
:1051300000D0DFE0089E099F8023DB00209A1A4000
:105140009046131E01D106331E930C960D973A001C
:10515000324300D1D5E0380D4005400DBF4A94469A
:1051600060443A03120BBE4B13431D0001F0B0F92B
:10517000BC4ABD4B01F03BF9BC4ABD4B01F010F9F4
:105180000C900D910022BB4B3000290001F0FFF87C
:10519000B94ABA4B01F02BF902000B000C980D999B
:1051A00001F0FEF801F0ACF9824601F091F9B44A41
:1051B000B44B0C900D9101F01AF90022B24B01F0A2
:1051C000EFF801F09DF90500B04AB14B0C980D992C
:1051D00001F00DF90C900D91280001F079F9AD4A1C
:1051E000AD4B01F004F902000B000C980D9901F091
:1051F000CEF802000B000E900F9101F0F8F810901D
:105200001191A64B9C4665442B050D9300230C93EE
:105210000E9C0F9D22002B002000290001F0C0F8F9
:105220000E900F9122002B0000208021C90501F073
:10523000AEF8129013910022994B109C119D200002
:10524000290001F0B6F80022964B01F0A9F80200FF
:105250000B002000290001F0ACF80022924B01F075
:105260009FF802000B002000290001F0A2F80200C4
:105270000B001298139901F093F802000B000E989E
:105280000F9901F096F80022754B01F089F80C9AFD
:105290000D9B01F0ACF802000B000C920D93320054
:1052A0003B0004000D0001F0FBF800282BD0012387
:1052B0005B429C46E24400227A4B2000290001F028
:1052C00078F80C900D911EE0209B04931F9B039394
:1052D0001E9B0293089A099B00920193079B0B9ACD
:1052E00006990A9800F0F4F814B01CBC9046994650
:1052F000A246F0BD2E0080231B069C466444270076
:105300001AE700239A4653466333C62B21D8042557
:10531000209B1B0529D50C9A0D9B1900114310D019
:10532000624A634B3000390001F0B2F8002800D126
:1053300082E000225F4B3000390001F09BF800282A
:105340007AD01E9B534506DD52469C1A631E1E935F
:1053500003E00525DCE700231E938023DB00209A71
:105360001A432092002500239A461F9B9D426DD22E
:105370005B1B99460223209A1A40904603D0002DC9
:1053800001D0002399465346002B07D00C9A0D9B61
:105390003000390001F00DF806000F000022002354
:1053A0000898099901F066F8002800D086E0424B81
:1053B000209A134004934B4603931E9B029300963E
:1053C0000197079B0B9A06990A9800F081F8002D27
:1053D00000D189E7209B9B0675D54526471C079B76
:1053E0000200069930000A9EB0475046C217831843
:1053F000534005220592013D0495002203920A3292
:105400000292C40F01940093079B3A000699300062
:10541000FFF78EFD4346002B00D165E702000A9E90
:105420000B9C1F9D131BAB424FD2571C079B069929
:105430002020B0473A00F5E71E9B002B95D043464D
:10544000002B92D01E9B013B1E938EE700239946B2
:1054500090E7C046FFFFEF7FFFFFEFFF01FCFFFF7C
:105460000000F03FFB799F501344D33FB3C8608BDB
:10547000288AC63F0000F83F61436F63A787D23F89
:1054800071A379094F930A400000E03F1655B5BB60
:10549000B16B0240EF39FAFE422EE63FFF030000F7
:1054A00000002C4000002440000018402D431CEB5D
:1054B000E2361A3F80842E41FFF7FFFF8021090664
:1054C0007B181F0073E7652688E710000CE7C046CD
:1054D000F0B5D646474680B597B00690079108923A
:1054E0000993209F1E9A1F9B1000190000F0DDFFFA
:1054F000002839D101225242BC4B1E981F9900F05E
:10550000B9FF00283FD101225242B94B1E981F9982
:1055100000F0C6FF002845D10022B64B1E981F9907
:1055200000F0BEFF002856D10022B34B1E981F99F1
:1055300000F0A0FF00284ED1002200231E981F99E2
:1055400000F098FF002856D100239A46229B5B0565
:105550005CD500261F2E5BD8092F59D90EAB3022FF
:105560009A55013F0136F5E7229B0393219B029355
:1055700003230193A14B0093099B089A079906986E
:10558000FFF70AFC03E1229B0393219B0293042370
:1055900001939B4B0093099B089A07990698FFF784
:1055A000FBFBF4E00423229A134010D0954A002B11
:1055B0000FD0042322990391219902910193009223
:1055C000099B089A07990698FFF7E6FBDFE08E4AE9
:1055D000EDE70323EEE7229B0493219B03930297BD
:1055E0001E9B1F9C00930194099B089A079906989B
:1055F000FFF76AFDCBE01E9A1F9B0020002100F000
:10560000C6FE1E901F9101239A469FE70627A0E73A
:105610001E981F9900F074FF040000F059FF02006B
:105620000B001E981F9900F0B2FEFA00774B9B18F2
:105630001A685B680C920D9300F0D9FE0A900B91EA
:1056400000F082FF050000F03FFF02000B000A9807
:105650000B9900F09CFE0A900B9100226C4B00F01D
:105660001FFF00282CD00135280000F02DFF02007C
:105670000B000C980D9900F003FF002801D00134B5
:105680000025002F2AD1200000F022FF02000B008D
:105690001E981F9900F07BFE00225D4B0A900B9133
:1056A00000F0E8FE002844D10022594B0A980B99DB
:1056B00000F0F6FE00283CD1E3073AD5013438E08B
:1056C0000022534B0A980B9900F0D4FE0028D8D141
:1056D000002D01D0EB07D4D50135D2E70A941F2E57
:1056E00011D8013F0A21280000F00EFC741C303153
:1056F0000EAB99550A21280000F006FC092D0ED9A1
:1057000005002600EBE70A9C1F2E0CD87B1E002FFD
:1057100009D00EAA302191551F000136F4E7A046AA
:105720000A9C4646F0E71F2E03D80EAB2E229A5550
:1057300001361F2E10D80A21200000F0BDFB751C79
:1057400030310EAB99550A21200000F0B5FB041E44
:1057500001D02E00EDE72E000323229A1340012BE7
:105760001AD01F2E06D85346002B2FD00EAB2D2259
:105770009A550136229B0393219B029301960EAB0F
:105780000093099B089A07990698FFF705FB17B045
:105790000CBC90469A46F0BD219B002B0AD0534684
:1057A000002B02D10C3313420ED0219B013B2193DD
:1057B000190000E021998E42D3D21F2ED1D80EAB12
:1057C00030229A550136F6E72199F4E7229B5B07D0
:1057D00004D50EAB2B229A550136CBE7229B1B0733
:1057E000C8D50EAB20229A550136C3E7FFFFEFFF65
:1057F000FFFFEF7F65CDCD4165CDCDC150B8001025
:1058000054B8001048B8001044B8001060B8001038
:105810000000E03FF0B5DE4657464E464546E0B54F
:1058200093B083460B910A921193002900D1E6E2CE
:1058300000275C46119B1878002800D1E2E2252859
:1058400009D07D1C0A9B3A000B99A047119B01339C
:1058500011932F00EEE70133119300261DE00B009A
:10586000303BDBB2092B37D92A293AD000239B469B
:10587000119B1A782E2A44D000239846119A137847
:10588000683BD9B2122900D980E08B00CB49CB58B4
:105890009F4601231E4301321192119A11780B0089
:1058A000203BD8B21028DAD88300C548C3589F4699
:1058B00002231E4301321192EFE704231E430132FB
:1058C0001192EAE708231E4301321192E5E7102303
:1058D0001E4301321192E0E711A8FFF749FA83460F
:1058E000C6E71C9B1A1D1C921B68002B04DB9B4601
:1058F000119B01331193BBE7022216435B429B4687
:10590000F6E78022D20016435A1C11925A781300EF
:10591000303BDBB2092B04D92A2A07D00023984652
:10592000ACE711A8FFF724FA8046A7E71C9B1A1DD5
:105930001C921B68002B04DB9846119B01331193CA
:105940009CE70023F8E780235B003343511C11914F
:1059500052786C2A01D01E0018E0C0239B001E4321
:105960000131119112E080233343511C119152787F
:10597000682A01D01E0009E0C0231E4301311191A5
:1059800004E080235B001E4301321192119B1878C2
:105990000300253BDAB2532A00D926E29300894A54
:1059A000D3589F4680239B001E4301321192EDE79E
:1059B00080235B001E4301321192E7E7782809D06B
:1059C000582838D06F2838D0622838D010239E430A
:1059D0000A2500E01025582833D0692803D0642810
:1059E00001D00C229643730501D501229643692804
:1059F0002AD0642828D0B30500D59FE0F30500D550
:105A0000B8E0730600D4CAE01C9A111D1C911168FD
:105A1000FF220A4005965B46049343460393029592
:105A20000023019300920A9B3A000B992000FFF794
:105A30007FFA070027E01025CDE70825CBE70225F0
:105A4000C9E720221643C8E7B30520D4F30550D494
:105A5000730666D51C9A111D1C911168FF220A401D
:105A6000D317D118594005965B46049343460393D8
:105A70000295D20F019200910A9B3A000B992000E7
:105A8000FFF756FA0700119B01331193D2E61C9BD6
:105A9000DA1D07218A43110008311C9111685368EF
:105AA0009C46DB170C930D930C9A0D9B10004840FD
:105AB0000E90624653400F930E980F990C9A0D9BCF
:105AC000801A99410E900F9108965B4607934346C2
:105AD00006930495002305936346DA0F0292009023
